:100000000C9434000C943E000C943E000C943E0082
:100010000C943E000C943E000C943E000C943E0068
:100020000C943E000C943E000C943E000C943E0058
:100030000C943E000C943E000C943E000C943E0048
:100040000C943E000C943E000C943E000C943E0038
:100050000C943E000C943E000C943E000C943E0028
:100060000C943E000C943E0011241FBECFEFD8E04C
:10007000DEBFCDBF0E9440000C945C000C940000D9
:10008000209A81E08AB921E09FEF85B1822785B966
:100090003FEF40E782E0315040408040E1F700C050
:1000A00000009BB93FEF40E782E031504040804084
:0C00B000E1F700C00000E9CFF894FFCF9A
:00000001FF
